:100000000C942A000C942F020C9458020C94810238
:100010000C9434050C9447000C9447000C94DC04B9
:100020000C9447000C9447000C9485040C944700F2
:100030000C9447000C9447000C9447000C94470024
:100040000C9447000C9447000C9447000C94470014
:100050000C94470011241FBECFE5D8E0DEBFCDBF12
:1000600010E0A0E6B0E0E4EBFFE002C005900D92E6
:10007000AA37B107D9F720E0AAE7B0E001C01D9286
:10008000AD3AB207E1F70E9482070C94D8070C94AE
:1000900000008091800081110BC080917F00811150
:1000A00006C081E0809380008CE380936100089516
:1000B0008130E9F710927A00809161008B34B9F3B6
:1000C0008F5FF3CF8091800081110BC080917F0002
:1000D000811106C081E0809380008CE380936100F1
:1000E00008958130E9F710927A008091610083329F
:1000F000B9F38150F3CF80E00E94E00181E00E94DB
:10010000E00149E450E062E080E00E94000242E643
:1001100050E062E081E00E94000281E00E94070658
:1001200082E00E94070680E00E94480681E00E946B
:1001300048060C949F06CF93DF93DCE38091800008
:10014000813019F0DF91CF910895C2E38091610071
:100150000E946D06C150D1F780917A008F5F853083
:1001600061F080937A002FEF83ED90E3215080407F
:100170009040E1F700C00000E1CF10927A001092A9
:100180008000D0936100EFCF8EE790E00E94560789
:1001900080917E0020917C0030917D00820F932F12
:1001A000911D90937D0080937C0080917B008F5FF8
:1001B00080937B00089580E00E94C20582E00E9447
:1001C000E00144E068E070E080E00E94E90246E47B
:1001D00051E062E082E00E94000280E00E94070697
:1001E0000E944C070C947307CF93DF93CAE0D0E0D2
:1001F00080917F00813019F0DF91CF910895809137
:100200007E000E946D0680917B008A3089F7809184
:100210007C0090917D00BE010E94930770937D0049
:1002200060937C0080916100861312C08091600011
:10023000815080936000811104C00E94E6051092F5
:100240007F0010927B0010927D0010927C00D0CF36
:10025000772790E09B01281B390B2530310534F0BE
:100260000E94780780E00E94D405EBCF861B970B95
:1002700005973CF30E947D0780E00E94F805E1CFDE
:100280000E947B000E94DB00789408950F934091B8
:1002900061006AE080E00E94A1061092800081E087
:1002A00080937F0001E024EC30E042E350E060E026
:1002B00070E080E00E9486030F9108958091800095
:1002C000813011F40C949B0080917F00813011F4F7
:1002D0000C94F40080E00C94D702413091F018F0B7
:1002E000423029F10895E82FF0E0EE0FFF1FEE589D
:1002F000FF4F0190F081E02D80816095682360833D
:10030000089590E0880F991FFC01EE58FF4F01906F
:10031000F081E02D3081262F2095232320838659DC
:100320009F4FDC01ED91FC918081682BE8CFE82F95
:10033000F0E0EE0FFF1FEE58FF4F0190F081E02D2F
:10034000F3CF442319F0413079F00895E82FF0E01D
:10035000EE0FFF1FE659FF4F0190F081E02D8081E5
:100360006095682360830895E82FF0E0EE0FFF1F8B
:10037000E659FF4F0190F081E02D8081682BF2CF8C
:10038000E82FF0E0EE0FFF1FE659FF4F0190F081DC
:10039000E02D8081682760830895E82FF0E0EE0F5C
:1003A000FF1FEE59FF4F0190F081E02D80816823FF
:1003B00019F4FA011082089581E0FA01808308950A
:1003C000813041F018F0823041F008958BB780649D
:1003D0008BBF08958BB78068FBCF8BB78062F8CF57
:1003E000813041F018F0823041F008958BB78F7B57
:1003F0008BBF08958BB78F77FBCF8BB78F7DF8CFEF
:10040000813079F018F08230D9F0089585B78C7F6B
:1004100085BF85B7682B65BF5093860040938500E4
:10042000089585B7837F85BF85B794E0699FB00144
:100430001124682B65BF5093840040938300089576
:10044000633041F484B7806484BF5093820040934A
:10045000810008956230C9F784B78F7BF5CF1F9272
:100460000F920FB60F9211242F933F934F935F93E8
:100470006F937F938F939F93AF93BF93EF93FF936C
:10048000E0918500F0918600309709F00995FF9181
:10049000EF91BF91AF919F918F917F916F915F91FC
:1004A0004F913F912F910F900FBE0F901F90189575
:1004B0001F920F920FB60F9211242F933F934F93D9
:1004C0005F936F937F938F939F93AF93BF93EF93BC
:1004D000FF93E0918300F0918400309709F0099533
:1004E000FF91EF91BF91AF919F918F917F916F910C
:1004F0005F914F913F912F910F900FBE0F901F90E2
:1005000018951F920F920FB60F9211242F933F93BD
:100510004F935F936F937F938F939F93AF93BF930B
:10052000EF93FF93E0918100F0918200309709F002
:100530000995FF91EF91BF91AF919F918F917F911D
:100540006F915F914F913F912F910F900FBE0F9040
:100550001F90189520E4829FC001112420E2629F21
:10056000B0011124862B87B9406846B9089597B128
:10057000907E97B997B1892B87B9369A349BFECF75
:10058000349A3D9B06C085B190E0FB019183808346
:10059000089584B195B1F9CF12BE83B79091AA00A6
:1005A000892B83BF089583B7887F83BF08958130E7
:1005B00031F018F0823049F008950C94D3028EB5D2
:1005C0009FB5887F9FBD8EBD089585B5887F85BD09
:1005D0000895813081F018F08230D9F0089568369E
:1005E000710529F4433318F0425360E670E063BFAD
:1005F0004093AA000895683081E8780729F44333CE
:1006000018F0425360E071E87FBD6EBD4093A900D1
:1006100008956836710529F4433318F0425360E6B3
:1006200070E065BD4093A8000895CF92DF92EF92ED
:10063000FF926A017B01813029F140F0823009F498
:1006400047C0FF90EF90DF90CF9008958AEF8CBF66
:100650000E94CC0281E0C81AD108E108F1088FEFAE
:10066000C816D806E806F80631F4FF90EF90DF9040
:10067000CF900C94D30208B601FEFDCF88B78260FC
:1006800088BFE8CF8AEF90E09BBD8ABD1DBC1CBC33
:100690008EB59FB52091A900822B9FBD8EBD81E0B4
:1006A000C81AD108E108F1088FEFC816D806E80685
:1006B000F80639F481E0FF90EF90DF90CF900C9432
:1006C000D70208B604FEFDCF88B7806188BFE7CFA8
:1006D0008AEF90E09BBD8ABD14BC85B59091A800BF
:1006E000892B85BD81E0C81AD108E108F1088FEF98
:1006F000C816D806E806F80611F482E0DCCF08B682
:1007000007FEFDCF88B7806888BFECCF0F9381309C
:10071000D9F020F08230B9F10F9108958AEF8CBFA3
:100720004093A1005093A2006093A3007093A40093
:1007300030939800209397000093A70089B78260B8
:1007400089BF0F910C94CC028AEF90E09BBD8ABDCB
:1007500040939D0050939E0060939F007093A00073
:1007600030939600209395000093A60089B780618E
:1007700089BF1DBC1CBC8EB59FB52091A900822BE2
:100780009FBD8EBDC9CF8AEF83BD40939900509322
:100790009A0060939B0070939C0030939400209388
:1007A00093000093A50089B7806889BF14BC85B504
:1007B0009091A800892B85BDAFCF813031F018F022
:1007C000823039F008956CBF089570E07BBD6ABD3A
:1007D000089563BD0895813031F018F0823069F0DA
:1007E00008950C94CC021DBC1CBC8EB59FB5209105
:1007F000A900822B9FBD8EBD089514BC85B5909134
:10080000A800892B85BD0895813031F018F0823021
:1008100031F008950C94D30281E00C94D70282E069
:10082000FCCFAF92BF92CF92DF92EF92FF920F93E5
:100830001F93CF93DF9300D000D000D0CDB7DEB7A9
:100840005C018B01FE01319686E0DF011D928A95E5
:10085000E9F78EB59FB580649FBD8EBD1DBC1CBCE5
:100860008EB59FB52091A900822B9FBD8EBD9E01A4
:10087000295F3F4F08B605FEFDCF86B597B581933A
:10088000919388B7806288BF8EB59FB5B0E48B27FF
:100890009FBD8EBDE217F30769F781E00E94D70282
:1008A00089819A81CD80DE80C81AD90AF12CE12C89
:1008B0002B813C81281B390BA4E6B0E00E94C907BC
:1008C000A70196010E94A707F501208360E970ED5A
:1008D00083E090E0A70196010E94A707D8012D931D
:1008E0003D934D935C93139726960FB6F894DEBF15
:1008F0000FBECDBFDF91CF911F910F91FF90EF9071
:10090000DF90CF90BF90AF9008951F920F920FB6D7
:100910000F9211242F933F934F935F936F937F9385
:100920008F939F93AF93BF93EF93FF9380918F002B
:1009300090919000A0919100B09192000196A11D1C
:10094000B11D80938F0090939000A0939100B0937D
:1009500092004091A1005091A2006091A30070917B
:10096000A40084179507A607B707A9F4E09197009C
:10097000F0919800309779F0099510928F001092BD
:10098000900010929100109292008091A700811126
:1009900002C00E94D302FF91EF91BF91AF919F914E
:1009A0008F917F916F915F914F913F912F910F9018
:1009B0000FBE0F901F9018951F920F920FB60F92B7
:1009C00011242F933F934F935F936F937F938F9354
:1009D0009F93AF93BF93EF93FF9380918B00909180
:1009E0008C00A0918D00B0918E000196A11DB11DCB
:1009F00080938B0090938C00A0938D00B0938E0019
:100A000040919D0050919E0060919F007091A000C8
:100A100084179507A607B707B1F4E0919500F09108
:100A20009600309781F0099510928B0010928C00FF
:100A300010928D0010928E008091A600811103C04B
:100A400081E00E94D702FF91EF91BF91AF919F91FA
:100A50008F917F916F915F914F913F912F910F9067
:100A60000FBE0F901F9018951F920F920FB60F9206
:100A700011242F933F934F935F936F937F938F93A3
:100A80009F93AF93BF93EF93FF93809187009091D3
:100A90008800A0918900B0918A000196A11DB11D26
:100AA0008093870090938800A0938900B0938A0078
:100AB0004091990050919A0060919B0070919C0028
:100AC00084179507A607B707B1F4E0919300F0915A
:100AD0009400309781F00995109287001092880059
:100AE0001092890010928A008091A500811103C0A4
:100AF00082E00E94D702FF91EF91BF91AF919F9149
:100B00008F917F916F915F914F913F912F910F90B6
:100B10000FBE0F901F90189588E480B911B8089502
:100B200094EA96BF91B1987F983021F091B1987F67
:100B30009031C1F7880F682B63B984E886BF06B689
:100B400007FEFDCF089584E986BF06B604FCFDCFFD
:100B5000089583B984E886BF06B607FEFDCF0895E1
:100B600024EC26BF06B607FEFDCF23B1FC0120838F
:100B7000089524E826BF06B607FEFDCF23B1FC0189
:100B800020830895813049F018F0823049F00895AB
:100B900042E064E082E00C946D0142E060E8FACF4C
:100BA00042E068E083E0F7CF813049F018F082300E
:100BB00049F0089541E064E082E00C94A10141E035
:100BC00060E8FACF41E068E083E0F7CF813049F098
:100BD00018F0823049F0089540E064E082E00C941F
:100BE000A10140E060E8FACF40E068E083E0F7CFA1
:100BF000813041F018F0823039F0089564E082E0ED
:100C00000C94C00160E8FBCF68E083E0F9CF81304D
:100C100049F018F0823051F0089540E064E081E03E
:100C20000C946D0140E064E083E0FACF40E068E0BE
:100C3000FBCFAB01813041F018F0823041F00895D4
:100C400064E081E00C94CD0164E083E0FBCF68E0D8
:100C5000FCCFCF93C82F482F417060E180E00E9405
:100C6000A101C1FB442740F960E280E00E94A1019C
:100C7000C2FB442740F960E480E00E94A1014C2FB0
:100C800046954695469560E880E0CF910C94A10189
:100C9000CF93C82F42E060E180E00E946D0142E006
:100CA00060E280E00E946D0142E060E480E00E942A
:100CB0006D0142E060E880E00E946D01CC2321F0EC
:100CC000C13041F0CF91089542E060E181E0CF91E1
:100CD0000C946D0142E060E2F9CFCF93C82F41E060
:100CE00060E181E00E94A1018C2F6AE00E948707E9
:100CF0008A3010F40E9429068FE39CE90197F1F7EE
:100D000000C0000040E060E181E00E94A10141E0FC
:100D100060E281E00E94A1018C2F6AE00E948707B7
:100D2000892F0E9429068FE39CE90197F1F700C003
:100D3000000040E060E281E0CF910C94A1010C94AE
:100D40008C05CF93DF93D62FC42F60E080650E947F
:100D500090058D2F0E94A9058FE39CE90197F1F77B
:100D600000C000008C2F0E94A9058FE39CE9019729
:100D7000F1F700C00000DF91CF910C94A3050F9311
:100D80001F93CF93DF93D62F8A01C22F213108F012
:100D9000C0E160E080650E9490058D2F0E94A9054A
:100DA0008FE39CE90197F1F700C00000C15060F4A7
:100DB0008FE39CE90197F1F700C00000DF91CF912C
:100DC0001F910F910C94A305F80181918F010E944E
:100DD000A905ECCF0F931F93CF93DF93D62F8A01F2
:100DE000C82FC06560E08C2F0E9490058D2F0E9457
:100DF000A9058FE39CE90197F1F700C0000061E0CD
:100E00008C2F0E949005C8010E94B9058FE39CE9D0
:100E10000197F1F700C00000DF91CF911F910F9172
:100E20000C94A305EF92FF920F931F93CF93DF9340
:100E3000162F7A01D82FD065CFEFC20F60E08D2F2B
:100E40000E949005812F0E94A9058FE39CE90197DC
:100E5000F1F700C0000061E08D2F0E949005DC2FAB
:100E60008701D15098F4C7018C0F911D0E94B905DC
:100E70008FE39CE90197F1F700C00000DF91CF916B
:100E80001F910F91FF90EF900C94A305C8010E9451
:100E9000B0050F5F1F4FE5CF44E060E081E00E94A6
:100EA000AA0240E061E080E00C946D01CF93DF93F3
:100EB000EC016BEA70E080E00E94B7024091AB0069
:100EC0005091AC0024EF31E0429FC001439F900D50
:100ED000529F900D11246FEF73E00E949307688377
:100EE000DF91CF91089542E064E080E00C946D01C1
:100EF00041E064E080E00C94A10140E064E080E027
:100F00000C94A1010E9440010E945E01FDCF991B3B
:100F100079E004C0991F961708F0961B881F7A95F0
:100F2000C9F780950895AA1BBB1B51E107C0AA1FF2
:100F3000BB1FA617B70710F0A61BB70B881F991F7A
:100F40005A95A9F780959095BC01CD010895A1E22D
:100F50001A2EAA1BBB1BFD010DC0AA1FBB1FEE1F33
:100F6000FF1FA217B307E407F50720F0A21BB30B7E
:100F7000E40BF50B661F771F881F991F1A9469F7FA
:100F800060957095809590959B01AC01BD01CF0156
:100F90000895A29FB001B39FC001A39F700D811D52
:100FA0001124911DB29F700D811D1124911D089572
:040FB000F894FFCFE3
:100FB400033C39003600330030003B003800350074
:0A0FC40032003A003700340031001B
:00000001FF
