:100000000C942A000C944D020C9476020C949F02DE
:100010000C9447050C9447000C9447000C94ED0495
:100020000C9447000C9447000C9495040C944700E2
:100030000C9447000C9447000C9447000C94470024
:100040000C9447000C9447000C9447000C94470014
:100050000C94470011241FBECFE5D8E0DEBFCDBF12
:1000600010E0A0E6B0E0E2EBFFE002C005900D92E8
:10007000AA37B107D9F720E0AAE7B0E001C01D9286
:10008000AD3AB207E1F70E9481070C94D7070C94B0
:10009000000080918000811108C080917F00811153
:1000A0000FC081E0809380000895813049F4109260
:1000B0007A00809160008B3419F08F5F809360002C
:1000C000089580918000811108C080917F00811186
:1000D0000FC081E0809380000895813049F4109230
:1000E0007A0080916000833219F081508093600023
:1000F000089580E00E94FE0181E00E94FE0149E433
:1001000050E062E080E00E941E0241E650E062E0C2
:1001100081E00E941E0281E00E941A0682E00E9495
:100120001A0680E00E943C0681E00E943C060C9486
:100130009E061F93CF93DF93DAE01CE3809180004B
:10014000813021F0DF91CF911F910895C2E380E0CB
:100150000E946106809160006D2F0E9486070E94B8
:100160007B068FE39CE90197F1F700C0000080E077
:100170000E946E0681E00E946106809160006D2FF2
:100180000E948607892F0E947B068FE39CE90197D6
:10019000F1F700C0000081E00E946E06C150B9F680
:1001A00080917A008F5F853061F080937A009FEFB5
:1001B00023ED80E3915020408040E1F700C0000033
:1001C000BDCF10927A001092800010936000EFCFA4
:1001D0008EE790E00E94550780917E0020917C0080
:1001E00030917D00820F932F911D90937D0080931D
:1001F0007C0080917B008F5F80937B0080E00C947B
:100200000B0680E00E94D50582E00E94FE0144E0DA
:1002100068E070E080E00E94F10246E651E062E0B2
:1002200082E00E941E0280E00E941A060E944B0794
:100230000C9472070F931F93CF930AE010E0809104
:100240007F00C0917B00813021F0CF911F910F91F1
:100250000895CA30F1F780E00E94610680917E0027
:100260006C2F0E9486070E947B068FE39CE9019712
:10027000F1F700C0000080E00E946E0681E00E945D
:10028000610680917E006C2F0E948607892F0E9454
:100290007B068FE39CE90197F1F700C0000081E045
:1002A0000E946E0680917C0090917D00B8010E94B2
:1002B000920770937D0060937C0010927B00BFCF0B
:1002C0000E9479000E940101789408950F93409153
:1002D00060006AE080E00E94A0061092800081E049
:1002E00080937F0001E028EE30E044E650E060E0DB
:1002F00070E080E00E948D030F910895809180004E
:10030000813011F40C94990080917F00813011F4B8
:100310000C941A010895413091F018F0423029F1FF
:100320000895E82FF0E0EE0FFF1FEF58FF4F019008
:10033000F081E02D8081609568236083089590E0CE
:10034000880F991FFC01EF58FF4F0190F081E02DBD
:100350003081262F20952323208387599F4FDC014E
:10036000ED91FC918081682BE8CFE82FF0E0EE0F53
:10037000FF1FEF58FF4F0190F081E02DF3CF442392
:1003800019F0413079F00895E82FF0E0EE0FFF1FEB
:10039000E759FF4F0190F081E02D8081609568233F
:1003A00060830895E82FF0E0EE0FFF1FE759FF4F3D
:1003B0000190F081E02D8081682BF2CFE82FF0E0F2
:1003C000EE0FFF1FE759FF4F0190F081E02D808174
:1003D000682760830895E82FF0E0EE0FFF1FEF59C4
:1003E000FF4F0190F081E02D8081682319F4FA011C
:1003F0001082089581E0FA0180830895813041F0F0
:1004000018F0823041F008958BB780648BBF089557
:100410008BB78068FBCF8BB78062F8CF813041F01B
:1004200018F0823041F008958BB78F7B8BBF089511
:100430008BB78F77FBCF8BB78F7DF8CF813079F07B
:1004400018F08230D9F0089585B78C7F85BF85B7C5
:10045000682B65BF5093860040938500089585B74B
:10046000837F85BF85B794E0699FB0011124682B15
:1004700065BF50938400409383000895633041F436
:1004800084B7806484BF50938200409381000895B4
:100490006230C9F784B78F7BF5CF1F920F920FB6EA
:1004A0000F9211242F933F934F935F936F937F93FA
:1004B0008F939F93AF93BF93EF93FF93E09185004A
:1004C000F0918600309709F00995FF91EF91BF9167
:1004D000AF919F918F917F916F915F914F913F91DC
:1004E0002F910F900FBE0F901F9018951F920F9293
:1004F0000FB60F9211242F933F934F935F936F93F7
:100500007F938F939F93AF93BF93EF93FF93E0916C
:100510008300F0918400309709F00995FF91EF91E5
:10052000BF91AF919F918F917F916F915F914F910B
:100530003F912F910F900FBE0F901F9018951F9213
:100540000F920FB60F9211242F933F934F935F9307
:100550006F937F938F939F93AF93BF93EF93FF938B
:10056000E0918100F0918200309709F00995FF91A8
:10057000EF91BF91AF919F918F917F916F915F911B
:100580004F913F912F910F900FBE0F901F90189594
:1005900020E4829FC001112420E2629FB001112457
:1005A000862B87B9406846B9089597B1907E97B970
:1005B00097B1892B87B9369A349BFECF349A3D9BED
:1005C00006C085B190E0FB0191838083089584B1DA
:1005D00095B1F9CF12BE83B79091AA00892B83BF42
:1005E0000895813081F018F08230D9F0089568368E
:1005F000710529F4433318F0425360E670E063BF9D
:100600004093AA000895683081E8780729F44333BD
:1006100018F0425360E071E87FBD6EBD4093A900C1
:1006200008956836710529F4433318F0425360E6A3
:1006300070E065BD4093A8000895CF92DF92EF92DD
:10064000FF926A017B01813019F140F0823009F498
:1006500044C0FF90EF90DF90CF9008958AEF8CBF59
:100660000E94EA0281E0C81AD108E108F1088FEF80
:10067000C816D806E806F80621F483B7887F83BF3A
:10068000E8CF08B601FEFDCF88B7826088BFEACF09
:100690008AEF90E09BBD8ABD1DBC1CBC8EB59FB58A
:1006A0002091A900822B9FBD8EBD81E0C81AD10880
:1006B000E108F1088FEFC816D806E806F80631F40D
:1006C0008EB59FB5887F9FBD8EBDC3CF08B604FE93
:1006D000FDCF88B7806188BFE8CF8AEF90E09BBDEF
:1006E0008ABD14BC85B59091A800892B85BD81E099
:1006F000C81AD108E108F1088FEFC816D806E80635
:10070000F80621F485B5887F85BDA3CF08B607FE1E
:10071000FDCF88B7806888BFEACF0F938130D9F0CA
:1007200020F08230B9F10F9108958AEF8CBF409389
:10073000A1005093A2006093A3007093A400309393
:100740009800209397000093A70089B7826089BF23
:100750000F910C94EA028AEF90E09BBD8ABD409312
:100760009D0050939E0060939F007093A000309373
:100770009600209395000093A60089B7806189BFF9
:100780001DBC1CBC8EB59FB52091A900822B9FBDBE
:100790008EBDC9CF8AEF83BD4093990050939A00D4
:1007A00060939B0070939C0030939400209393007F
:1007B0000093A50089B7806889BF14BC85B5909166
:1007C000A800892B85BDAFCF813031F018F0823081
:1007D00039F008956CBF089570E07BBD6ABD08953F
:1007E00063BD0895813031F018F0823069F00895CA
:1007F0000C94EA021DBC1CBC8EB59FB52091A900CB
:10080000822B9FBD8EBD089514BC85B59091A80024
:10081000892B85BD0895813041F018F0823059F060
:10082000089583B7887F83BF08958EB59FB5887F6D
:100830009FBD8EBD089585B5887F85BD0895AF9213
:10084000BF92CF92DF92EF92FF920F931F93CF93BD
:10085000DF9300D000D000D0CDB7DEB75C018B01B4
:10086000FE01319686E0DF011D928A95E9F78EB58B
:100870009FB580649FBD8EBD1DBC1CBC8EB59FB551
:100880002091A900822B9FBD8EBD9E01295F3F4F05
:1008900008B605FEFDCF86B597B58193919388B7CD
:1008A000806288BF8EB59FB5B0E48B279FBD8EBD9B
:1008B0002E173F0769F78EB59FB5887F9FBD8EBD08
:1008C00089819A81CD80DE80C81AD90AF12CE12C69
:1008D0002B813C81281B390BA4E6B0E00E94C8079D
:1008E000A70196010E94A607F501208360E970ED3B
:1008F00083E090E0A70196010E94A607D8012D93FE
:100900003D934D935C93139726960FB6F894DEBFF4
:100910000FBECDBFDF91CF911F910F91FF90EF9050
:10092000DF90CF90BF90AF9008951F920F920FB6B7
:100930000F9211242F933F934F935F936F937F9365
:100940008F939F93AF93BF93EF93FF9380918F000B
:1009500090919000A0919100B09192000196A11DFC
:10096000B11D80938F0090939000A0939100B0935D
:1009700092004091A1005091A2006091A30070915B
:10098000A40084179507A607B707B1F4E091970074
:10099000F0919800309781F0099510928F00109295
:1009A000900010929100109292008091A700811106
:1009B00003C083B7887F83BFFF91EF91BF91AF9151
:1009C0009F918F917F916F915F914F913F912F9167
:1009D0000F900FBE0F901F9018951F920F920FB699
:1009E0000F9211242F933F934F935F936F937F93B5
:1009F0008F939F93AF93BF93EF93FF9380918B005F
:100A000090918C00A0918D00B0918E000196A11D57
:100A1000B11D80938B0090938C00A0938D00B093B8
:100A20008E0040919D0050919E0060919F007091BA
:100A3000A00084179507A607B707C1F4E0919500B9
:100A4000F0919600309791F0099510928B001092DA
:100A50008C0010928D0010928E008091A600811162
:100A600005C08EB59FB5887F9FBD8EBDFF91EF916C
:100A7000BF91AF919F918F917F916F915F914F91B6
:100A80003F912F910F900FBE0F901F9018951F92BE
:100A90000F920FB60F9211242F933F934F935F93B2
:100AA0006F937F938F939F93AF93BF93EF93FF9336
:100AB0008091870090918800A0918900B0918A0070
:100AC0000196A11DB11D8093870090938800A0938B
:100AD0008900B0938A004091990050919A006091EA
:100AE0009B0070919C0084179507A607B707B1F487
:100AF000E0919300F0919400309781F00995109265
:100B00008700109288001092890010928A008091CC
:100B1000A500811103C085B5887F85BDFF91EF9148
:100B2000BF91AF919F918F917F916F915F914F9105
:100B30003F912F910F900FBE0F901F90189588E452
:100B400080B911B8089594EA96BF91B1987F983012
:100B500021F091B1987F9031C1F7880F682B63B96C
:100B600084E886BF06B607FEFDCF089584E986BFF8
:100B700006B604FCFDCF089583B984E886BF06B6A7
:100B800007FEFDCF089524EC26BF06B607FEFDCF75
:100B900023B1FC012083089524E826BF06B607FE92
:100BA000FDCF23B1FC0120830895813049F018F076
:100BB000823049F0089542E064E082E00C948B01B9
:100BC00042E060E8FACF42E068E083E0F7CF8130AE
:100BD00049F018F0823049F0089541E064E082E085
:100BE0000C94BF0141E060E8FACF41E068E083E0A7
:100BF000F7CF813049F018F0823049F0089540E095
:100C000064E082E00C94BF0140E060E8FACF40E08D
:100C100068E083E0F7CF813041F018F0823039F09E
:100C2000089564E082E00C94DE0160E8FBCF68E0A8
:100C300083E0F9CF813049F018F0823051F0089507
:100C400040E064E081E00C948B0140E064E083E0EC
:100C5000FACF40E068E0FBCFAB01813041F018F003
:100C6000823041F0089564E081E00C94EB0164E08F
:100C700083E0FBCF68E0FCCFCF93C82F42E060E178
:100C800080E00E948B0142E060E280E00E948B01E4
:100C900042E060E480E00E948B0142E060E880E096
:100CA0000E948B01CC2321F0C13041F0CF910895F7
:100CB00042E060E181E0CF910C948B0142E060E280
:100CC000F9CF882319F0813031F0089541E060E1D7
:100CD00081E00C94BF0141E060E2FACF882319F073
:100CE000813031F0089540E060E181E00C94BF0173
:100CF00040E060E2FACFCF938A30F0F4C82F482F5B
:100D0000417060E180E00E94BF01C1FB442740F9CF
:100D100060E280E00E94BF01C2FB442740F960E42A
:100D200080E00E94BF014C2F46954695469560E8AD
:100D300080E0CF910C94BF01CF9108950C949F0552
:100D4000CF93DF93D62FC42F60E080650E94A30568
:100D50008D2F0E94BC058FE39CE90197F1F700C03D
:100D600000008C2F0E94BC058FE39CE90197F1F7EE
:100D700000C00000DF91CF910C94B6050F931F9334
:100D8000CF93DF93D62F8A01C22F213108F0C0E123
:100D900060E080650E94A3058D2F0E94BC058FE353
:100DA0009CE90197F1F700C00000C15060F48FE3A7
:100DB0009CE90197F1F700C00000DF91CF911F91EE
:100DC0000F910C94B605F80181918F010E94BC052A
:100DD000ECCF0F931F93CF93DF93D62F8A01C82FA9
:100DE000C06560E08C2F0E94A3058D2F0E94BC057A
:100DF0008FE39CE90197F1F700C0000061E08C2FC0
:100E00000E94A305C8010E94CC058FE39CE90197CD
:100E1000F1F700C00000DF91CF911F910F910C946A
:100E2000B605EF92FF920F931F93CF93DF93162F88
:100E30007A01D82FD065CFEFC20F60E08D2F0E94CE
:100E4000A305812F0E94BC058FE39CE90197F1F770
:100E500000C0000061E08D2F0E94A305DC2F8701F8
:100E6000D15098F4C7018C0F911D0E94CC058FE3DF
:100E70009CE90197F1F700C00000DF91CF911F912D
:100E80000F91FF90EF900C94B605C8010E94C30526
:100E90000F5F1F4FE5CF44E060E081E00E94C80291
:100EA00040E061E080E00C948B01CF93DF93EC0194
:100EB0006BEA70E080E00E94D5024091AB00509157
:100EC000AC0024EF31E0429FC001439F900D529F40
:100ED000900D11246FEF73E00E9492076883DF91F9
:100EE000CF91089542E064E080E00C948B0141E0F2
:100EF00064E080E00C94BF0140E064E080E00C948A
:100F0000BF010E9460010E947E01FDCF991B79E024
:100F100004C0991F961708F0961B881F7A95C9F789
:100F200080950895AA1BBB1B51E107C0AA1FBB1FD8
:100F3000A617B70710F0A61BB70B881F991F5A9565
:100F4000A9F780959095BC01CD010895A1E21A2ED4
:100F5000AA1BBB1BFD010DC0AA1FBB1FEE1FFF1F5D
:100F6000A217B307E407F50720F0A21BB30BE40BAD
:100F7000F50B661F771F881F991F1A9469F76095F4
:100F80007095809590959B01AC01BD01CF010895AE
:100F9000A29FB001B39FC001A39F700D811D1124BA
:100FA000911DB29F700D811D1124911D0895F8941B
:020FB000FFCF71
:100FB2003C39003600330030003B00380035003247
:0A0FC200003A00370034003100004F
:00000001FF
