:100000000C942A000C945C020C9485020C94AE02B1
:100010000C9461050C9447000C9447000C9409055E
:100020000C9447000C9447000C94B2040C944700C5
:100030000C9447000C9447000C9447000C94470024
:100040000C9447000C9447000C9447000C94470014
:100050000C94470011241FBECFE5D8E0DEBFCDBF12
:1000600010E0A0E6B0E0E8E0F0E102C005900D92FB
:10007000AA37B107D9F720E0AAE7B0E001C01D9286
:10008000AD3AB207E1F70E94AC070C9402080C9459
:1000900000008091800081110BC080917F00811150
:1000A00006C081E0809380008CE380936100089516
:1000B0008130E9F710927A00809161008B34B9F3B6
:1000C0008B5FF3CF8091800081110BC080917F0006
:1000D000811106C081E0809380008CE380936100F1
:1000E00008958130E9F710927A008091610083329F
:1000F000B9F38550F3CF82E00E940D0281E00E94A7
:100100000D0249E450E062E082E00E942D0242E6E6
:1001100050E062E081E00E942D0281E00E943406FE
:1001200082E00E94340680E00E94750681E00E9411
:1001300075060C94CC06CF9380918000813011F02D
:10014000CF910895C2E3809161000E949A06C15048
:10015000D1F780917A008F5F853061F080937A00CB
:100160002FEF83ED90E3215080409040E1F700C0F5
:100170000000E2CF10927A00109280000E943901B4
:10018000EFCF8EE790E00E94830780917E00209160
:100190007C0030917D00820F932F911D90937D0004
:1001A00080937C0020917B002F5F20937B002A307E
:1001B000D9F46AE070E00E94BD0770937D006093FF
:1001C0007C0080916100861310C080916000815096
:1001D00080936000811102C00E94390110927B005F
:1001E00010927D0010927C000895772790E09B018B
:1001F000281B390B253031054CF00E94A20780E006
:100200000E94010685E080936000E8CF861B970B73
:10021000059724F30E94A70780E00E942506F2CFED
:1002200080E00E94EF0580E00E940D0243E068E05C
:1002300070E080E00E9416034BE451E061E080E052
:100240000E942D0280E00E9434060E9479070C94DF
:100250009D0780917F00813009F0089580917E0094
:100260000E949A06F6CF0E947B000E9410017894AB
:10027000089580E00E9413060E94A70780E00E9474
:1002800004031092800010927F008CE38093610041
:1002900010927E0008950F93809180008130C9F400
:1002A00090917F00911137C01092800080937F0061
:1002B00001E021EC30E044E650E060E070E080E0F6
:1002C0000E94B303409161006AE080E00F910C94BA
:1002D000CE06811120C080917F00813019F40F91EA
:1002E0000C943901811117C080916000882399F026
:1002F00081E080937F0041E650E06AE080E00E9468
:10030000170701E021EC30E044E650E060E070E0E7
:1003100080E00E94B3030F910895809180008130A6
:1003200011F40C949B0080917F00813011F40C94A7
:1003300029010895413091F018F0423029F10895D3
:10034000E82FF0E0EE0FFF1FEE58FF4F0190F08115
:10035000E02D8081609568236083089590E0880F88
:10036000991FFC01EE58FF4F0190F081E02D308184
:10037000262F20952323208386599F4FDC01ED9162
:10038000FC918081682BE8CFE82FF0E0EE0FFF1F93
:10039000EE58FF4F0190F081E02DF3CF442319F088
:1003A000413079F00895E82FF0E0EE0FFF1FE65995
:1003B000FF4F0190F081E02D80816095682360837C
:1003C0000895E82FF0E0EE0FFF1FE659FF4F019070
:1003D000F081E02D8081682BF2CFE82FF0E0EE0F66
:1003E000FF1FE659FF4F0190F081E02D80816827C3
:1003F00060830895E82FF0E0EE0FFF1FEE59FF4FE6
:100400000190F081E02D8081682319F4FA011082B7
:10041000089581E0FA0180830895813041F018F059
:10042000823041F008958BB780648BBF08958BB7FD
:100430008068FBCF8BB78062F8CF813041F018F035
:10044000823041F008958BB78F7B8BBF08958BB7B7
:100450008F77FBCF8BB78F7DF8CF813079F018F095
:100460008230D9F0089585B78C7F85BF85B7682B1A
:1004700065BF5093860040938500089585B7837FBC
:1004800085BF85B794E0699FB0011124682B65BFD3
:1004900050938400409383000895633041F484B7FF
:1004A000806484BF5093820040938100089562303D
:1004B000C9F784B78F7BF5CF1F920F920FB60F92BB
:1004C00011242F933F934F935F936F937F938F9359
:1004D0009F93AF93BF93EF93FF93E0918500F091CB
:1004E0008600309709F00995FF91EF91BF91AF9188
:1004F0009F918F917F916F915F914F913F912F913C
:100500000F900FBE0F901F9018951F920F920FB66D
:100510000F9211242F933F934F935F936F937F9389
:100520008F939F93AF93BF93EF93FF93E0918300DB
:10053000F0918400309709F00995FF91EF91BF91F8
:10054000AF919F918F917F916F915F914F913F916B
:100550002F910F900FBE0F901F9018951F920F9222
:100560000FB60F9211242F933F934F935F936F9386
:100570007F938F939F93AF93BF93EF93FF93E091FC
:100580008100F0918200309709F00995FF91EF9179
:10059000BF91AF919F918F917F916F915F914F919B
:1005A0003F912F910F900FBE0F901F90189520E450
:1005B000829FC001112420E2629FB0011124862B8A
:1005C00087B9406846B9089597B1907E97B997B1B9
:1005D000892B87B9369A349BFECF349A3D9B06C04F
:1005E00085B190E0FB0191838083089584B195B13A
:1005F000F9CF12BE83B79091AA00892B83BF0895CB
:1006000083B7887F83BF0895813031F018F082303E
:1006100049F008950C9400038EB59FB5887F9FBD67
:100620008EBD089585B5887F85BD0895813081F0A0
:1006300018F08230D9F008956836710529F44333F3
:1006400018F0425360E670E063BF4093AA0008953B
:10065000683081E8780729F4433318F0425360E0AA
:1006600071E87FBD6EBD4093A9000895683671059D
:1006700029F4433318F0425360E670E065BD4093BF
:10068000A8000895CF92DF92EF92FF926A017B015A
:10069000813029F140F0823009F447C0FF90EF909B
:1006A000DF90CF9008958AEF8CBF0E94F90281E01D
:1006B000C81AD108E108F1088FEFC816D806E80675
:1006C000F80631F4FF90EF90DF90CF900C94000388
:1006D00008B601FEFDCF88B7826088BFE8CF8AEFF9
:1006E00090E09BBD8ABD1DBC1CBC8EB59FB5209102
:1006F000A900822B9FBD8EBD81E0C81AD108E108F8
:10070000F1088FEFC816D806E806F80639F481E03C
:10071000FF90EF90DF90CF900C94040308B604FE96
:10072000FDCF88B7806188BFE7CF8AEF90E09BBD9F
:100730008ABD14BC85B59091A800892B85BD81E048
:10074000C81AD108E108F1088FEFC816D806E806E4
:10075000F80611F482E0DCCF08B607FEFDCF88B7BB
:10076000806888BFECCF0F938130D9F020F08230C1
:10077000B9F10F9108958AEF8CBF4093A100509377
:10078000A2006093A3007093A4003093980020937C
:1007900097000093A70089B7826089BF0F910C94DE
:1007A000F9028AEF90E09BBD8ABD40939D00509373
:1007B0009E0060939F007093A0003093960020935A
:1007C00095000093A60089B7806189BF1DBC1CBC41
:1007D0008EB59FB52091A900822B9FBD8EBDC9CF3C
:1007E0008AEF83BD4093990050939A0060939B00D9
:1007F00070939C0030939400209393000093A50085
:1008000089B7806889BF14BC85B59091A800892BF1
:1008100085BDAFCF813031F018F0823039F00895C6
:100820006CBF089570E07BBD6ABD089563BD0895F7
:10083000813031F018F0823069F008950C94F9029B
:100840001DBC1CBC8EB59FB52091A900822B9FBDFD
:100850008EBD089514BC85B59091A800892B85BDE7
:100860000895813031F018F0823031F008950C9401
:10087000000381E00C94040382E0FCCFAF92BF92AE
:10088000CF92DF92EF92FF920F931F93CF93DF935C
:1008900000D000D000D0CDB7DEB75C018B01FE01E7
:1008A000319686E0DF011D928A95E9F78EB59FB5F6
:1008B00080649FBD8EBD1DBC1CBC8EB59FB52091B4
:1008C000A900822B9FBD8EBD9E01295F3F4F08B6B8
:1008D00005FEFDCF86B597B58193919388B7806269
:1008E00088BF8EB59FB5B0E48B279FBD8EBDE21744
:1008F000F30769F781E00E94040389819A81CD8022
:10090000DE80C81AD90AF12CE12C2B813C81281BEE
:10091000390BA4E6B0E00E94F307A70196010E94FC
:10092000D107F501208360E970ED83E090E0A70135
:1009300096010E94D107D8012D933D934D935C936E
:10094000139726960FB6F894DEBF0FBECDBFDF918A
:10095000CF911F910F91FF90EF90DF90CF90BF90BC
:10096000AF9008951F920F920FB60F9211242F93FC
:100970003F934F935F936F937F938F939F93AF9327
:10098000BF93EF93FF9380918F0090919000A0917F
:100990009100B09192000196A11DB11D80938F002E
:1009A00090939000A0939100B09392004091A10089
:1009B0005091A2006091A3007091A4008417950744
:1009C000A607B707A9F4E0919700F0919800309737
:1009D00079F0099510928F0010929000109291007A
:1009E000109292008091A700811102C00E94000322
:1009F000FF91EF91BF91AF919F918F917F916F91F7
:100A00005F914F913F912F910F900FBE0F901F90CC
:100A100018951F920F920FB60F9211242F933F93A8
:100A20004F935F936F937F938F939F93AF93BF93F6
:100A3000EF93FF9380918B0090918C00A0918D009B
:100A4000B0918E000196A11DB11D80938B009093F3
:100A50008C00A0938D00B0938E0040919D0050912A
:100A60009E0060919F007091A00084179507A607D3
:100A7000B707B1F4E0919500F0919600309781F0BE
:100A8000099510928B0010928C0010928D0010929C
:100A90008E008091A600811103C081E00E940403B2
:100AA000FF91EF91BF91AF919F918F917F916F9146
:100AB0005F914F913F912F910F900FBE0F901F901C
:100AC00018951F920F920FB60F9211242F933F93F8
:100AD0004F935F936F937F938F939F93AF93BF9346
:100AE000EF93FF938091870090918800A0918900F7
:100AF000B0918A000196A11DB11D8093870090934B
:100B00008800A0938900B0938A0040919900509189
:100B10009A0060919B0070919C0084179507A6072E
:100B2000B707B1F4E0919300F0919400309781F011
:100B300009951092870010928800109289001092F7
:100B40008A008091A500811103C082E00E94040305
:100B5000FF91EF91BF91AF919F918F917F916F9195
:100B60005F914F913F912F910F900FBE0F901F906B
:100B7000189588E480B911B8089594EA96BF91B1A8
:100B8000987F983021F091B1987F9031C1F7880F0C
:100B9000682B63B984E886BF06B607FEFDCF0895CB
:100BA00084E986BF06B604FCFDCF089583B984E8C6
:100BB00086BF06B607FEFDCF089524EC26BF06B615
:100BC00007FEFDCF23B1FC012083089524E826BF52
:100BD00006B607FEFDCF23B1FC01208308958130C6
:100BE00049F018F0823049F0089542E064E082E074
:100BF0000C949A0142E060E8FACF42E068E083E0BA
:100C0000F7CF813049F018F0823049F0089541E083
:100C100064E082E00C94CE0141E060E8FACF41E06C
:100C200068E083E0F7CF813049F018F0823049F076
:100C3000089540E064E082E00C94CE0140E060E87A
:100C4000FACF40E068E083E0F7CF813041F018F060
:100C5000823039F0089564E082E00C94ED0160E8A0
:100C6000FBCF68E083E0F9CF813049F018F08230A3
:100C700051F0089540E064E081E00C949A0140E076
:100C800064E083E0FACF40E068E0FBCFAB01813065
:100C900041F018F0823041F0089564E081E00C9456
:100CA000FA0164E083E0FBCF68E0FCCFCF93C82F6C
:100CB000482F417060E180E00E94CE01C1FB4427D3
:100CC00040F960E280E00E94CE01C2FB442740F977
:100CD00060E480E00E94CE014C2F469546954695F3
:100CE00060E880E0CF910C94CE01CF93C82F42E012
:100CF00060E180E00E949A0142E060E280E00E94B0
:100D00009A0142E060E480E00E949A0142E060E8DB
:100D100080E00E949A01CC2321F0C13041F0CF91B4
:100D2000089542E060E181E0CF910C949A0142E0A5
:100D300060E2F9CFCF93C82F41E060E181E00E94EB
:100D4000CE018C2F6AE00E94B1078A3010F40E9415
:100D500056068FE39CE90197F1F700C0000040E0E0
:100D600060E181E00E94CE0141E060E281E00E940A
:100D7000CE018C2F6AE00E94B107892F0E9456068F
:100D80008FE39CE90197F1F700C0000040E060E2CA
:100D900081E0CF910C94CE010C94B905CF93DF93F1
:100DA000D62FC42F60E080650E94BD058D2F0E9464
:100DB000D6058FE39CE90197F1F700C000008C2F66
:100DC0000E94D6058FE39CE90197F1F700C000006F
:100DD000DF91CF910C94D0050F931F93CF93DF93A6
:100DE000D62F8A01C22F213108F0C0E160E0806572
:100DF0000E94BD058D2F0E94D6058FE39CE90197C7
:100E0000F1F700C00000C15060F48FE39CE9019746
:100E1000F1F700C00000DF91CF911F910F910C946A
:100E2000D005F80181918F010E94D605ECCF0F9378
:100E30001F93CF93DF93D62F8A01C82FC06560E040
:100E40008C2F0E94BD058D2F0E94D6058FE39CE953
:100E50000197F1F700C0000061E08C2F0E94BD05F2
:100E6000C8010E94E6058FE39CE90197F1F700C0F5
:100E70000000DF91CF911F910F910C94D005EF925C
:100E8000FF920F931F93CF93DF93162F7A01D82FE2
:100E9000D065CFEFC20F60E08D2F0E94BD05812F7E
:100EA0000E94D6058FE39CE90197F1F700C000008E
:100EB00061E08D2F0E94BD05DC2F8701D15098F491
:100EC000C7018C0F911D0E94E6058FE39CE90197F5
:100ED000F1F700C00000DF91CF911F910F91FF90BB
:100EE000EF900C94D005C8010E94DD050F5F1F4FE5
:100EF000E5CF44E060E081E00E94D70240E061E09D
:100F000080E00C949A01CF93DF93EC016BEA70E0E0
:100F100080E00E94E4022091AB003091AC00A4EF8D
:100F2000B1E00E94F3072FEF33E040E050E00E9471
:100F3000D1072883DF91CF91089542E064E080E0FB
:100F40000C949A0141E064E080E00C94CE0140E012
:100F500064E080E00C94CE010E9433010E948D0178
:100F6000FDCF991B79E004C0991F961708F0961BD6
:100F7000881F7A95C9F780950895AA1BBB1B51E17C
:100F800007C0AA1FBB1FA617B70710F0A61BB70BF9
:100F9000881F991F5A95A9F780959095BC01CD019E
:100FA0000895A1E21A2EAA1BBB1BFD010DC0AA1FAA
:100FB000BB1FEE1FFF1FA217B307E407F50720F0C2
:100FC000A21BB30BE40BF50B661F771F881F991F3D
:100FD0001A9469F760957095809590959B01AC0186
:100FE000BD01CF010895A29FB001B39FC001A39F8F
:100FF000700D811D1124911DB29F700D811D112452
:08100000911D0895F894FFCF43
:10100800053C39003600330030003B00380035001D
:0A10180032003A00370034003100C6
:00000001FF
