:100000000C942A000C9435020C945E020C94870226
:100010000C943A050C9447000C9447000C94E204AD
:100020000C9447000C9447000C948B040C944700EC
:100030000C9447000C9447000C9447000C94470024
:100040000C9447000C9447000C9447000C94470014
:100050000C94470011241FBECFE5D8E0DEBFCDBF12
:1000600010E0A0E6B0E0EAEBFFE002C005900D92E0
:10007000AA37B107D9F720E0AAE7B0E001C01D9286
:10008000AD3AB207E1F70E9485070C94DB070C94A8
:1000900000008091800081110BC080917F00811150
:1000A00006C081E0809380008CE380936100089516
:1000B0008130E9F710927A00809161008B34B9F3B6
:1000C0008F5FF3CF8091800081110BC080917F0002
:1000D000811106C081E0809380008CE380936100F1
:1000E00008958130E9F710927A008091610083329F
:1000F000B9F38150F3CF80E00E94E60181E00E94D5
:10010000E60149E450E062E080E00E94060242E637
:1001100050E062E081E00E94060281E00E940D064C
:1001200082E00E940D0680E00E944E0681E00E945F
:100130004E060C94A506CF93DF93DCE380918000FC
:10014000813019F0DF91CF910895C2E38091610071
:100150000E947306C150D1F780917A008F5F85307D
:1001600061F080937A002FEF83ED90E3215080407F
:100170009040E1F700C00000E1CF10927A001092A9
:100180008000D0936100EFCF8EE790E00E945C0783
:1001900080917E0020917C0030917D00820F932F12
:1001A000911D90937D0080937C0080917B008F5FF8
:1001B00080937B00089580E00E94C80582E00E9441
:1001C000E60143E068E070E080E00E94EF024DE469
:1001D00051E062E082E00E94060280E00E940D068B
:1001E0000E9452070C9476071F93CF93DF93CAE0C7
:1001F000D0E013E080917F00813021F0DF91CF913A
:100200001F91089580917E000E94730680917B006B
:100210008A3081F780917C0090917D00BE010E9420
:10022000960770937D0060937C0080916100861337
:1002300014C080916000815080936000811106C0DD
:100240000E94EC050E94800710927F0010927B00B4
:1002500010927D0010927C00CDCF772790E09B011B
:10026000281B390B2530310544F00E947B0780E0C4
:100270000E94DA0510936000E9CF861B970B059763
:100280002CF30E94800780E00E94FE05F3CF0E94BD
:100290007B000E94DB00789408950F9310928000F9
:1002A00081E080937F0001E024EC30E044E650E000
:1002B00060E070E080E00E948C03409161006AE0A1
:1002C00080E00F910C94A70680918000813011F49A
:1002D0000C949B0080917F00813011F40C94F40009
:1002E00080E00C94DD02413091F018F0423029F1A9
:1002F0000895E82FF0E0EE0FFF1FEE58FF4F01903A
:10030000F081E02D8081609568236083089590E0FE
:10031000880F991FFC01EE58FF4F0190F081E02DEE
:100320003081262F20952323208386599F4FDC017F
:10033000ED91FC918081682BE8CFE82FF0E0EE0F83
:10034000FF1FEE58FF4F0190F081E02DF3CF4423C3
:1003500019F0413079F00895E82FF0E0EE0FFF1F1B
:10036000E659FF4F0190F081E02D80816095682370
:1003700060830895E82FF0E0EE0FFF1FE659FF4F6E
:100380000190F081E02D8081682BF2CFE82FF0E022
:10039000EE0FFF1FE659FF4F0190F081E02D8081A5
:1003A000682760830895E82FF0E0EE0FFF1FEE59F5
:1003B000FF4F0190F081E02D8081682319F4FA014C
:1003C0001082089581E0FA0180830895813041F020
:1003D00018F0823041F008958BB780648BBF089588
:1003E0008BB78068FBCF8BB78062F8CF813041F04C
:1003F00018F0823041F008958BB78F7B8BBF089542
:100400008BB78F77FBCF8BB78F7DF8CF813079F0AB
:1004100018F08230D9F0089585B78C7F85BF85B7F5
:10042000682B65BF5093860040938500089585B77B
:10043000837F85BF85B794E0699FB0011124682B45
:1004400065BF50938400409383000895633041F466
:1004500084B7806484BF50938200409381000895E4
:100460006230C9F784B78F7BF5CF1F920F920FB61A
:100470000F9211242F933F934F935F936F937F932A
:100480008F939F93AF93BF93EF93FF93E09185007A
:10049000F0918600309709F00995FF91EF91BF9197
:1004A000AF919F918F917F916F915F914F913F910C
:1004B0002F910F900FBE0F901F9018951F920F92C3
:1004C0000FB60F9211242F933F934F935F936F9327
:1004D0007F938F939F93AF93BF93EF93FF93E0919D
:1004E0008300F0918400309709F00995FF91EF9116
:1004F000BF91AF919F918F917F916F915F914F913C
:100500003F912F910F900FBE0F901F9018951F9243
:100510000F920FB60F9211242F933F934F935F9337
:100520006F937F938F939F93AF93BF93EF93FF93BB
:10053000E0918100F0918200309709F00995FF91D8
:10054000EF91BF91AF919F918F917F916F915F914B
:100550004F913F912F910F900FBE0F901F901895C4
:1005600020E4829FC001112420E2629FB001112487
:10057000862B87B9406846B9089597B1907E97B9A0
:1005800097B1892B87B9369A349BFECF349A3D9B1D
:1005900006C085B190E0FB0191838083089584B10A
:1005A00095B1F9CF12BE83B79091AA00892B83BF72
:1005B000089583B7887F83BF0895813031F018F0A4
:1005C000823049F008950C94D9028EB59FB5887F8A
:1005D0009FBD8EBD089585B5887F85BD0895813006
:1005E00081F018F08230D9F008956836710529F449
:1005F000433318F0425360E670E063BF4093AA00B3
:100600000895683081E8780729F4433318F042539D
:1006100060E071E87FBD6EBD4093A9000895683623
:10062000710529F4433318F0425360E670E065BD6C
:100630004093A8000895CF92DF92EF92FF926A0153
:100640007B01813029F140F0823009F447C0FF90EE
:10065000EF90DF90CF9008958AEF8CBF0E94D20276
:1006600081E0C81AD108E108F1088FEFC816D80652
:10067000E806F80631F4FF90EF90DF90CF900C94ED
:10068000D90208B601FEFDCF88B7826088BFE8CFE7
:100690008AEF90E09BBD8ABD1DBC1CBC8EB59FB58A
:1006A0002091A900822B9FBD8EBD81E0C81AD10880
:1006B000E108F1088FEFC816D806E806F80639F405
:1006C00081E0FF90EF90DF90CF900C94DD0208B6B0
:1006D00004FEFDCF88B7806188BFE7CF8AEF90E046
:1006E0009BBD8ABD14BC85B59091A800892B85BDA2
:1006F00081E0C81AD108E108F1088FEFC816D806C2
:10070000E806F80611F482E0DCCF08B607FEFDCF5C
:1007100088B7806888BFECCF0F938130D9F020F084
:100720008230B9F10F9108958AEF8CBF4093A100F8
:100730005093A2006093A3007093A400309398009C
:10074000209397000093A70089B7826089BF0F911B
:100750000C94D2028AEF90E09BBD8ABD40939D002D
:1007600050939E0060939F007093A000309396007A
:10077000209395000093A60089B7806189BF1DBCB6
:100780001CBC8EB59FB52091A900822B9FBD8EBD4C
:10079000C9CF8AEF83BD4093990050939A0060932C
:1007A0009B0070939C0030939400209393000093DF
:1007B000A50089B7806889BF14BC85B59091A80051
:1007C000892B85BDAFCF813031F018F0823039F000
:1007D00008956CBF089570E07BBD6ABD089563BD48
:1007E0000895813031F018F0823069F008950C944A
:1007F000D2021DBC1CBC8EB59FB52091A900822BD6
:100800009FBD8EBD089514BC85B59091A800892B1D
:1008100085BD0895813031F018F0823031F00895AF
:100820000C94D90281E00C94DD0282E0FCCFAF92FF
:10083000BF92CF92DF92EF92FF920F931F93CF93CD
:10084000DF9300D000D000D0CDB7DEB75C018B01C4
:10085000FE01319686E0DF011D928A95E9F78EB59B
:100860009FB580649FBD8EBD1DBC1CBC8EB59FB561
:100870002091A900822B9FBD8EBD9E01295F3F4F15
:1008800008B605FEFDCF86B597B58193919388B7DD
:10089000806288BF8EB59FB5B0E48B279FBD8EBDAB
:1008A000E217F30769F781E00E94DD0289819A81EE
:1008B000CD80DE80C81AD90AF12CE12C2B813C8135
:1008C000281B390BA4E6B0E00E94CC07A7019601D3
:1008D0000E94AA07F501208360E970ED83E090E0B3
:1008E000A70196010E94AA07D8012D933D934D932D
:1008F0005C93139726960FB6F894DEBF0FBECDBF5C
:10090000DF91CF911F910F91FF90EF90DF90CF90EB
:10091000BF90AF9008951F920F920FB60F921124BF
:100920002F933F934F935F936F937F938F939F93F7
:10093000AF93BF93EF93FF9380918F0090919000BE
:10094000A0919100B09192000196A11DB11D8093DC
:100950008F0090939000A0939100B09392004091EB
:10096000A1005091A2006091A3007091A40084178F
:100970009507A607B707A9F4E0919700F0919800B2
:10098000309779F0099510928F0010929000109294
:100990009100109292008091A700811102C00E94E4
:1009A000D902FF91EF91BF91AF919F918F917F916C
:1009B0006F915F914F913F912F910F900FBE0F90CC
:1009C0001F9018951F920F920FB60F9211242F931C
:1009D0003F934F935F936F937F938F939F93AF93C7
:1009E000BF93EF93FF9380918B0090918C00A09127
:1009F0008D00B0918E000196A11DB11D80938B00DA
:100A000090938C00A0938D00B0938E0040919D0038
:100A100050919E0060919F007091A00084179507EF
:100A2000A607B707B1F4E0919500F09196003097D2
:100A300081F0099510928B0010928C0010928D001D
:100A400010928E008091A600811103C081E00E9467
:100A5000DD02FF91EF91BF91AF919F918F917F91B7
:100A60006F915F914F913F912F910F900FBE0F901B
:100A70001F9018951F920F920FB60F9211242F936B
:100A80003F934F935F936F937F938F939F93AF9316
:100A9000BF93EF93FF938091870090918800A0917E
:100AA0008900B0918A000196A11DB11D8093870035
:100AB00090938800A0938900B0938A004091990098
:100AC00050919A0060919B0070919C00841795074B
:100AD000A607B707B1F4E0919300F0919400309726
:100AE00081F0099510928700109288001092890079
:100AF00010928A008091A500811103C082E00E94BB
:100B0000DD02FF91EF91BF91AF919F918F917F9106
:100B10006F915F914F913F912F910F900FBE0F906A
:100B20001F90189588E480B911B8089594EA96BF8B
:100B300091B1987F983021F091B1987F9031C1F7B1
:100B4000880F682B63B984E886BF06B607FEFDCF21
:100B5000089584E986BF06B604FCFDCF089583B9E5
:100B600084E886BF06B607FEFDCF089524EC26BFB5
:100B700006B607FEFDCF23B1FC012083089524E8CB
:100B800026BF06B607FEFDCF23B1FC0120830895E2
:100B9000813049F018F0823049F0089542E064E075
:100BA00082E00C94730142E060E8FACF42E068E032
:100BB00083E0F7CF813049F018F0823049F0089592
:100BC00041E064E082E00C94A70141E060E8FACFE4
:100BD00041E068E083E0F7CF813049F018F08230DF
:100BE00049F0089540E064E082E00C94A70140E001
:100BF00060E8FACF40E068E083E0F7CF813041F071
:100C000018F0823039F0089564E082E00C94C60157
:100C100060E8FBCF68E083E0F9CF813049F018F05D
:100C2000823051F0089540E064E081E00C9473015B
:100C300040E064E083E0FACF40E068E0FBCFAB0146
:100C4000813041F018F0823041F0089564E081E095
:100C50000C94D30164E083E0FBCF68E0FCCFCF933A
:100C6000C82F482F417060E180E00E94A701C1FBBE
:100C7000442740F960E280E00E94A701C2FB4427BC
:100C800040F960E480E00E94A7014C2F469546950C
:100C9000469560E880E0CF910C94A701CF93C82FD0
:100CA00042E060E180E00E94730142E060E280E0A7
:100CB0000E94730142E060E480E00E94730142E020
:100CC00060E880E00E947301CC2321F0C13041F044
:100CD000CF91089542E060E181E0CF910C947301DF
:100CE00042E060E2F9CFCF93C82F41E060E181E0BC
:100CF0000E94A7018C2F6AE00E948A078A3010F4B4
:100D00000E942F068FE39CE90197F1F700C00000D5
:100D100040E060E181E00E94A70141E060E281E003
:100D20000E94A7018C2F6AE00E948A07892F0E94E7
:100D30002F068FE39CE90197F1F700C0000040E027
:100D400060E281E0CF910C94A7010C949205CF93BF
:100D5000DF93D62FC42F60E080650E9496058D2F0B
:100D60000E94AF058FE39CE90197F1F700C00000F6
:100D70008C2F0E94AF058FE39CE90197F1F700C02B
:100D80000000DF91CF910C94A9050F931F93CF938F
:100D9000DF93D62F8A01C22F213108F0C0E160E035
:100DA00080650E9496058D2F0E94AF058FE39CE918
:100DB0000197F1F700C00000C15060F48FE39CE997
:100DC0000197F1F700C00000DF91CF911F910F91C3
:100DD0000C94A905F80181918F010E94AF05ECCF19
:100DE0000F931F93CF93DF93D62F8A01C82FC0652F
:100DF00060E08C2F0E9496058D2F0E94AF058FE337
:100E00009CE90197F1F700C0000061E08C2F0E947F
:100E10009605C8010E94BF058FE39CE90197F1F791
:100E200000C00000DF91CF911F910F910C94A90594
:100E3000EF92FF920F931F93CF93DF93162F7A01B8
:100E4000D82FD065CFEFC20F60E08D2F0E9496059E
:100E5000812F0E94AF058FE39CE90197F1F700C055
:100E6000000061E08D2F0E949605DC2F8701D15094
:100E700098F4C7018C0F911D0E94BF058FE39CE978
:100E80000197F1F700C00000DF91CF911F910F9102
:100E9000FF90EF900C94A905C8010E94B6050F5F62
:100EA0001F4FE5CF44E060E081E00E94B00240E0E7
:100EB00061E080E00C947301CF93DF93EC016BEA67
:100EC00070E080E00E94BD022091AB003091AC0048
:100ED000A4EFB1E00E94CC072FEF33E040E050E0F8
:100EE0000E94AA072883DF91CF91089542E064E031
:100EF00080E00C94730141E064E080E00C94A70171
:100F000040E064E080E00C94A7010E9447010E9449
:100F10006401FDCF991B79E004C0991F961708F072
:100F2000961B881F7A95C9F780950895AA1BBB1B4D
:100F300051E107C0AA1FBB1FA617B70710F0A61BD9
:100F4000B70B881F991F5A95A9F780959095BC01FA
:100F5000CD010895A1E21A2EAA1BBB1BFD010DC0F5
:100F6000AA1FBB1FEE1FFF1FA217B307E407F50759
:100F700020F0A21BB30BE40BF50B661F771F881F35
:100F8000991F1A9469F760957095809590959B01CB
:100F9000AC01BD01CF010895A29FB001B39FC00174
:100FA000A39F700D811D1124911DB29F700D811D95
:0A0FB0001124911D0895F894FFCF5D
:100FBA00033C39003600330030003B00380035006E
:0A0FCA0032003A0037003400310015
:00000001FF
