:100000000C942A000C94FB010C9424020C944D02D5
:100010000C9447000C9447000C9447000C94470044
:100020000C9447000C9447000C9447000C94470034
:100030000C9447000C9447000C9447000C94470024
:100040000C9447000C9447000C9447000C94470014
:100050000C94470011241FBECFE5D8E0DEBFCDBF12
:1000600010E0A0E6B0E0E0EAFCE002C005900D92EE
:10007000AA37B107D9F720E0AAE7B0E001C01D9286
:10008000AA38B207E1F70E94F8050C944E060C94CA
:10009000000080917E00811108C080917D00811157
:1000A0000FC081E080937E000895813049F4109262
:1000B0007A00809160008B3419F08F5F809360002C
:1000C000089580917E00811108C080917D0081118A
:1000D0000FC081E080937E000895813049F4109232
:1000E0007A0080916000833219F081508093600023
:1000F000089580E00E94AC0181E00E94AC0149E4D7
:1001000050E062E080E00E94CC0141E650E062E015
:1001100081E00E94CC0181E00E94910482E00E9473
:10012000910480E00E94B30481E00E94B3040C9427
:1001300015051F93CF93DF93DAE01CE380917E00D7
:10014000813021F0DF91CF911F910895C2E380E0CB
:100150000E94D804809160006D2F0E94FD050E94CE
:10016000F2048FE39CE90197F1F700C0000080E002
:100170000E94E50481E00E94D804809160006D2F08
:100180000E94FD05892F0E94F2048FE39CE90197EC
:10019000F1F700C0000081E00E94E504C150B9F60B
:1001A00080917A008F5F853061F080937A009FEFB5
:1001B00023ED80E3915020408040E1F700C0000033
:1001C000BDCF10927A0010927E0010936000EFCFA6
:1001D0008CE790E00E94CC0580917B008F5F80933C
:1001E0007B00089582E00E94AC0140E251E062E0B1
:1001F00082E00E94CC0180E00E9491040E94C2052E
:100200000C94E9050F9380917D00813011F00F91DE
:10021000089501E028EE30E044E650E060E070E050
:1002200080E00E943B0380917B008A3061F710924E
:100230007B00E9CF0E9479000E94F2007894089533
:10024000409160006AE080E00E94170510927E00F5
:1002500081E080937D00089580917E00813011F4CB
:100260000C94990080917D00813011F40C9402016E
:100270000895413091F018F0423029F10895E82FA7
:10028000F0E0EE0FFF1FEF58FF4F0190F081E02DDF
:100290008081609568236083089590E0880F991F9E
:1002A000FC01EF58FF4F0190F081E02D3081262FA7
:1002B00020952323208387599F4FDC01ED91FC91EA
:1002C0008081682BE8CFE82FF0E0EE0FFF1FEF589A
:1002D000FF4F0190F081E02DF3CF442319F041301E
:1002E00079F00895E82FF0E0EE0FFF1FE759FF4F78
:1002F0000190F081E02D80816095682360830895EE
:10030000E82FF0E0EE0FFF1FE759FF4F0190F0815B
:10031000E02D8081682BF2CFE82FF0E0EE0FFF1F79
:10032000E759FF4F0190F081E02D808168276083BD
:100330000895E82FF0E0EE0FFF1FEF59FF4F0190F7
:10034000F081E02D8081682319F4FA01108208956C
:1003500081E0FA0180830895813041F018F0823005
:1003600041F008958BB780648BBF08958BB7806888
:10037000FBCF8BB78062F8CF813041F018F082302C
:1003800041F008958BB78F7B8BBF08958BB78F7724
:10039000FBCF8BB78F7DF8CF813079F018F08230AA
:1003A000D9F0089585B78C7F85BF85B7682B65BF69
:1003B0005093840040938300089585B7837F85BF61
:1003C00085B794E0699FB0011124682B65BF5093F5
:1003D0008200409381000895633041F484B78064C3
:1003E00084BF5093800040937F0008956230C9F726
:1003F00084B78F7BF5CF1F920F920FB60F92112407
:100400002F933F934F935F936F937F938F939F931C
:10041000AF93BF93EF93FF93E0918300F09184003B
:10042000309709F00995FF91EF91BF91AF919F919E
:100430008F917F916F915F914F913F912F910F908D
:100440000FBE0F901F9018951F920F920FB60F922C
:1004500011242F933F934F935F936F937F938F93C9
:100460009F93AF93BF93EF93FF93E0918100F0913F
:100470008200309709F00995FF91EF91BF91AF91FC
:100480009F918F917F916F915F914F913F912F91AC
:100490000F900FBE0F901F9018951F920F920FB6DE
:1004A0000F9211242F933F934F935F936F937F93FA
:1004B0008F939F93AF93BF93EF93FF93E0917F0050
:1004C000F0918000309709F00995FF91EF91BF916D
:1004D000AF919F918F917F916F915F914F913F91DC
:1004E0002F910F900FBE0F901F90189520E4829FC0
:1004F000C001112420E2629FB0011124862B87B92C
:10050000406846B9089597B1907E97B997B1892B05
:1005100087B9369A349BFECF349A3D9B06C085B18D
:1005200090E0FB0191838083089584B195B1F9CF68
:1005300012BE83B790918700892B83BF08958130C5
:1005400081F018F08230D9F008956836710529F4E9
:10055000433318F0425360E670E063BF4093870076
:100560000895683081E8780729F4433318F042533E
:1005700060E071E87FBD6EBD4093860008956836E7
:10058000710529F4433318F0425360E670E065BD0D
:10059000409385000895CF92DF92EF92FF926A0117
:1005A0007B01813019F140F0823009F444C0FF90A2
:1005B000EF90DF90CF9008958AEF8CBF0E94980251
:1005C00081E0C81AD108E108F1088FEFC816D806F3
:1005D000E806F80621F483B7887F83BFE8CF08B622
:1005E00001FEFDCF88B7826088BFEACF8AEF90E036
:1005F0009BBD8ABD1DBC1CBC8EB59FB520918600DD
:10060000822B9FBD8EBD81E0C81AD108E108F10898
:100610008FEFC816D806E806F80631F48EB59FB5F8
:10062000887F9FBD8EBDC3CF08B604FEFDCF88B7BF
:10063000806188BFE8CF8AEF90E09BBD8ABD14BC83
:1006400085B590918500892B85BD81E0C81AD108B8
:10065000E108F1088FEFC816D806E806F80621F47D
:1006600085B5887F85BDA3CF08B607FEFDCF88B7C7
:10067000806888BFEACF813059F018F08230C9F025
:1006800008958AEF8CBF89B7826089BF0C94980265
:100690008AEF90E09BBD8ABD89B7806189BF1DBC90
:1006A0001CBC8EB59FB520918600822B9FBD8EBD50
:1006B00008958AEF83BD89B7806889BF14BC85B56A
:1006C00090918500892B85BD0895813031F018F017
:1006D000823039F008956CBF089570E07BBD6ABD2B
:1006E000089563BD0895813031F018F0823069F0CB
:1006F00008950C9498021DBC1CBC8EB59FB520912A
:100700008600822B9FBD8EBD089514BC85B5909147
:100710008500892B85BD0895813041F018F0823025
:1007200059F0089583B7887F83BF08958EB59FB52C
:10073000887F9FBD8EBD089585B5887F85BD08954E
:10074000AF92BF92CF92DF92EF92FF920F931F93DF
:10075000CF93DF9300D000D000D0CDB7DEB75C01DF
:100760008B01FE01319686E0DF011D928A95E9F743
:100770008EB59FB580649FBD8EBD1DBC1CBC8EB563
:100780009FB520918600822B9FBD8EBD9E01295F63
:100790003F4F08B605FEFDCF86B597B5819391937F
:1007A00088B7806288BF8EB59FB5B0E48B279FBDA8
:1007B0008EBD2E173F0769F78EB59FB5887F9FBD09
:1007C0008EBD89819A81CD80DE80C81AD90AF12C2C
:1007D000E12C2B813C81281B390BA4E6B0E00E9460
:1007E0003F06A70196010E941D06F501208360E9DE
:1007F00070ED83E090E0A70196010E941D06D801EC
:100800002D933D934D935C93139726960FB6F894D2
:10081000DEBF0FBECDBFDF91CF911F910F91FF9033
:10082000EF90DF90CF90BF90AF90089588E480B9AB
:1008300011B8089594EA96BF91B1987F983021F04D
:1008400091B1987F9031C1F7880F682B63B984E824
:1008500086BF06B607FEFDCF089584E986BF06B6BB
:1008600004FCFDCF089583B984E886BF06B607FE71
:10087000FDCF089524EC26BF06B607FEFDCF23B1B9
:10088000FC012083089524E826BF06B607FEFDCFAD
:1008900023B1FC0120830895813049F018F08230A3
:1008A00049F0089542E064E082E00C94390142E0AE
:1008B00060E8FACF42E068E083E0F7CF813049F0AA
:1008C00018F0823049F0089541E064E082E00C9431
:1008D0006D0141E060E8FACF41E068E083E0F7CFE6
:1008E000813049F018F0823049F0089540E064E02A
:1008F00082E00C946D0140E060E8FACF40E068E0EF
:1009000083E0F7CF813041F018F0823039F008955C
:1009100064E082E00C948C0160E8FBCF68E083E047
:10092000F9CF813049F018F0823051F0089540E05D
:1009300064E081E00C94390140E064E083E0FACFA8
:1009400040E068E0FBCFAB01813041F018F082302D
:1009500041F0089564E081E00C94990164E083E043
:10096000FBCF68E0FCCFCF93C82F42E060E180E08E
:100970000E94390142E060E280E00E94390142E0D9
:1009800060E480E00E94390142E060E880E00E947B
:100990003901CC2321F0C13041F0CF91089542E0DC
:1009A00060E181E0CF910C94390142E060E2F9CF3F
:1009B000882319F0813031F0089541E060E181E051
:1009C0000C946D0141E060E2FACF882319F0813088
:1009D00031F0089540E060E181E00C946D0140E069
:1009E00060E2FACFCF938A30F0F4C82F482F4170DD
:1009F00060E180E00E946D01C1FB442740F960E2A4
:100A000080E00E946D01C2FB442740F960E480E071
:100A10000E946D014C2F46954695469560E880E012
:100A2000CF910C946D01CF9108950C941604CF933F
:100A3000DF93D62FC42F60E080650E941A048D2FAB
:100A40000E9433048FE39CE90197F1F700C0000096
:100A50008C2F0E9433048FE39CE90197F1F700C0CB
:100A60000000DF91CF910C942D040F931F93CF932F
:100A7000DF93D62F8A01C22F213108F0C0E160E058
:100A800080650E941A048D2F0E9433048FE39CE935
:100A90000197F1F700C00000C15060F48FE39CE9BA
:100AA0000197F1F700C00000DF91CF911F910F91E6
:100AB0000C942D04F80181918F010E943304ECCF36
:100AC0000F931F93CF93DF93D62F8A01C82FC06552
:100AD00060E08C2F0E941A048D2F0E9433048FE354
:100AE0009CE90197F1F700C0000061E08C2F0E94A3
:100AF0001A04C8010E9443048FE39CE90197F1F7AF
:100B000000C00000DF91CF911F910F910C942D0434
:100B1000EF92FF920F931F93CF93DF93162F7A01DB
:100B2000D82FD065CFEFC20F60E08D2F0E941A043E
:100B3000812F0E9433048FE39CE90197F1F700C0F5
:100B4000000061E08D2F0E941A04DC2F8701D15034
:100B500098F4C7018C0F911D0E9443048FE39CE918
:100B60000197F1F700C00000DF91CF911F910F9125
:100B7000FF90EF900C942D04C8010E943A040F5F7F
:100B80001F4FE5CF44E060E081E00E94760240E044
:100B900061E080E00C943901CF93DF93EC0168E8C9
:100BA00070E080E00E9483024091880050918900AB
:100BB00024EF31E0429FC001439F900D529F900D62
:100BC00011246FEF73E00E9409066883DF91CF91D3
:100BD000089542E064E080E00C94390141E064E073
:100BE00080E00C946D0140E064E080E00C946D01C5
:100BF0000E941A010E942C01FDCF991B79E004C0CC
:100C0000991F961708F0961B881F7A95C9F780954B
:100C10000895AA1BBB1B51E107C0AA1FBB1FA61743
:100C2000B70710F0A61BB70B881F991F5A95A9F795
:100C300080959095BC01CD010895A1E21A2EAA1BC2
:100C4000BB1BFD010DC0AA1FBB1FEE1FFF1FA2177C
:100C5000B307E407F50720F0A21BB30BE40BF50B79
:100C6000661F771F881F991F1A9469F76095709502
:100C7000809590959B01AC01BD01CF010895A29F85
:100C8000B001B39FC001A39F700D811D1124911D60
:100C9000B29F700D811D1124911D0895F894FFCF0E
:100CA0003C39003600330030003B0038003500325C
:0A0CB000003A003700340031000064
:00000001FF
